{
  "address": "0x55262349aC0B8e5D5FC11770D3778ea130145CDB",
  "abi": [
    {
      "inputs": [
        {
          "internalType": "string",
          "name": "name",
          "type": "string"
        },
        {
          "internalType": "string",
          "name": "symbol",
          "type": "string"
        }
      ],
      "stateMutability": "nonpayable",
      "type": "constructor"
    },
    {
      "anonymous": false,
      "inputs": [
        {
          "indexed": true,
          "internalType": "address",
          "name": "owner",
          "type": "address"
        },
        {
          "indexed": true,
          "internalType": "address",
          "name": "approved",
          "type": "address"
        },
        {
          "indexed": true,
          "internalType": "uint256",
          "name": "tokenId",
          "type": "uint256"
        }
      ],
      "name": "Approval",
      "type": "event"
    },
    {
      "anonymous": false,
      "inputs": [
        {
          "indexed": true,
          "internalType": "address",
          "name": "owner",
          "type": "address"
        },
        {
          "indexed": true,
          "internalType": "address",
          "name": "operator",
          "type": "address"
        },
        {
          "indexed": false,
          "internalType": "bool",
          "name": "approved",
          "type": "bool"
        }
      ],
      "name": "ApprovalForAll",
      "type": "event"
    },
    {
      "anonymous": false,
      "inputs": [
        {
          "indexed": true,
          "internalType": "address",
          "name": "from",
          "type": "address"
        },
        {
          "indexed": true,
          "internalType": "address",
          "name": "to",
          "type": "address"
        },
        {
          "indexed": true,
          "internalType": "uint256",
          "name": "tokenId",
          "type": "uint256"
        }
      ],
      "name": "Transfer",
      "type": "event"
    },
    {
      "inputs": [
        {
          "internalType": "address",
          "name": "to",
          "type": "address"
        },
        {
          "internalType": "uint256",
          "name": "tokenId",
          "type": "uint256"
        }
      ],
      "name": "approve",
      "outputs": [],
      "stateMutability": "nonpayable",
      "type": "function"
    },
    {
      "inputs": [
        {
          "internalType": "address",
          "name": "owner",
          "type": "address"
        }
      ],
      "name": "balanceOf",
      "outputs": [
        {
          "internalType": "uint256",
          "name": "",
          "type": "uint256"
        }
      ],
      "stateMutability": "view",
      "type": "function"
    },
    {
      "inputs": [
        {
          "internalType": "uint256",
          "name": "tokenId",
          "type": "uint256"
        }
      ],
      "name": "getApproved",
      "outputs": [
        {
          "internalType": "address",
          "name": "",
          "type": "address"
        }
      ],
      "stateMutability": "view",
      "type": "function"
    },
    {
      "inputs": [
        {
          "internalType": "address",
          "name": "owner",
          "type": "address"
        },
        {
          "internalType": "address",
          "name": "operator",
          "type": "address"
        }
      ],
      "name": "isApprovedForAll",
      "outputs": [
        {
          "internalType": "bool",
          "name": "",
          "type": "bool"
        }
      ],
      "stateMutability": "view",
      "type": "function"
    },
    {
      "inputs": [
        {
          "internalType": "address",
          "name": "_to",
          "type": "address"
        },
        {
          "internalType": "string",
          "name": "imgHref",
          "type": "string"
        }
      ],
      "name": "mint",
      "outputs": [],
      "stateMutability": "payable",
      "type": "function"
    },
    {
      "inputs": [],
      "name": "name",
      "outputs": [
        {
          "internalType": "string",
          "name": "",
          "type": "string"
        }
      ],
      "stateMutability": "view",
      "type": "function"
    },
    {
      "inputs": [
        {
          "internalType": "uint256",
          "name": "tokenId",
          "type": "uint256"
        }
      ],
      "name": "ownerOf",
      "outputs": [
        {
          "internalType": "address",
          "name": "",
          "type": "address"
        }
      ],
      "stateMutability": "view",
      "type": "function"
    },
    {
      "inputs": [
        {
          "internalType": "address",
          "name": "from",
          "type": "address"
        },
        {
          "internalType": "address",
          "name": "to",
          "type": "address"
        },
        {
          "internalType": "uint256",
          "name": "tokenId",
          "type": "uint256"
        }
      ],
      "name": "safeTransferFrom",
      "outputs": [],
      "stateMutability": "nonpayable",
      "type": "function"
    },
    {
      "inputs": [
        {
          "internalType": "address",
          "name": "from",
          "type": "address"
        },
        {
          "internalType": "address",
          "name": "to",
          "type": "address"
        },
        {
          "internalType": "uint256",
          "name": "tokenId",
          "type": "uint256"
        },
        {
          "internalType": "bytes",
          "name": "data",
          "type": "bytes"
        }
      ],
      "name": "safeTransferFrom",
      "outputs": [],
      "stateMutability": "nonpayable",
      "type": "function"
    },
    {
      "inputs": [
        {
          "internalType": "address",
          "name": "operator",
          "type": "address"
        },
        {
          "internalType": "bool",
          "name": "approved",
          "type": "bool"
        }
      ],
      "name": "setApprovalForAll",
      "outputs": [],
      "stateMutability": "nonpayable",
      "type": "function"
    },
    {
      "inputs": [
        {
          "internalType": "bytes4",
          "name": "interfaceId",
          "type": "bytes4"
        }
      ],
      "name": "supportsInterface",
      "outputs": [
        {
          "internalType": "bool",
          "name": "",
          "type": "bool"
        }
      ],
      "stateMutability": "view",
      "type": "function"
    },
    {
      "inputs": [],
      "name": "symbol",
      "outputs": [
        {
          "internalType": "string",
          "name": "",
          "type": "string"
        }
      ],
      "stateMutability": "view",
      "type": "function"
    },
    {
      "inputs": [
        {
          "internalType": "uint256",
          "name": "tokenId",
          "type": "uint256"
        }
      ],
      "name": "tokenURI",
      "outputs": [
        {
          "internalType": "string",
          "name": "",
          "type": "string"
        }
      ],
      "stateMutability": "view",
      "type": "function"
    },
    {
      "inputs": [
        {
          "internalType": "address",
          "name": "from",
          "type": "address"
        },
        {
          "internalType": "address",
          "name": "to",
          "type": "address"
        },
        {
          "internalType": "uint256",
          "name": "tokenId",
          "type": "uint256"
        }
      ],
      "name": "transferFrom",
      "outputs": [],
      "stateMutability": "nonpayable",
      "type": "function"
    }
  ],
  "transactionHash": "0x15ee1ad302fb40409db22969b80058107b1ddebb0ca7bf618b5fa00e7a576169",
  "args": [
    "VolcanoNFT",
    "VNFT"
  ],
  "numDeployments": 2,
  "solcInputHash": "3bf50eb6790d905a91b38fc24fe41399",
  "bytecode": "0x61020060405261015460808181529062001f3860a0396008906200002490826200014e565b5060405180606001604052806023815260200162001f15602391396009906200004e90826200014e565b503480156200005c57600080fd5b506040516200208c3803806200208c8339810160408190526200007f91620002c9565b818160006200008f83826200014e565b5060016200009e82826200014e565b505050505062000333565b634e487b7160e01b600052604160045260246000fd5b600181811c90821680620000d457607f821691505b602082108103620000f557634e487b7160e01b600052602260045260246000fd5b50919050565b601f8211156200014957600081815260208120601f850160051c81016020861015620001245750805b601f850160051c820191505b81811015620001455782815560010162000130565b5050505b505050565b81516001600160401b038111156200016a576200016a620000a9565b62000182816200017b8454620000bf565b84620000fb565b602080601f831160018114620001ba5760008415620001a15750858301515b600019600386901b1c1916600185901b17855562000145565b600085815260208120601f198616915b82811015620001eb57888601518255948401946001909101908401620001ca565b50858210156200020a5787850151600019600388901b60f8161c191681555b5050505050600190811b01905550565b600082601f8301126200022c57600080fd5b81516001600160401b0380821115620002495762000249620000a9565b604051601f8301601f19908116603f01168101908282118183101715620002745762000274620000a9565b816040528381526020925086838588010111156200029157600080fd5b600091505b83821015620002b5578582018301518183018401529082019062000296565b600093810190920192909252949350505050565b60008060408385031215620002dd57600080fd5b82516001600160401b0380821115620002f557600080fd5b62000303868387016200021a565b935060208501519150808211156200031a57600080fd5b5062000329858286016200021a565b9150509250929050565b611bd280620003436000396000f3fe6080604052600436106100dd5760003560e01c806370a082311161007f578063b88d4fde11610059578063b88d4fde14610256578063c87b56dd14610276578063d0def52114610296578063e985e9c5146102a957600080fd5b806370a08231146101f357806395d89b4114610221578063a22cb4651461023657600080fd5b8063095ea7b3116100bb578063095ea7b31461017157806323b872dd1461019357806342842e0e146101b35780636352211e146101d357600080fd5b806301ffc9a7146100e257806306fdde0314610117578063081812fc14610139575b600080fd5b3480156100ee57600080fd5b506101026100fd3660046112f5565b6102c9565b60405190151581526020015b60405180910390f35b34801561012357600080fd5b5061012c61031b565b60405161010e9190611362565b34801561014557600080fd5b50610159610154366004611375565b6103ad565b6040516001600160a01b03909116815260200161010e565b34801561017d57600080fd5b5061019161018c3660046113aa565b6103d4565b005b34801561019f57600080fd5b506101916101ae3660046113d4565b6104ee565b3480156101bf57600080fd5b506101916101ce3660046113d4565b61051f565b3480156101df57600080fd5b506101596101ee366004611375565b61053a565b3480156101ff57600080fd5b5061021361020e366004611410565b61059a565b60405190815260200161010e565b34801561022d57600080fd5b5061012c610620565b34801561024257600080fd5b5061019161025136600461142b565b61062f565b34801561026257600080fd5b506101916102713660046114f3565b61063e565b34801561028257600080fd5b5061012c610291366004611375565b610676565b6101916102a436600461156f565b610786565b3480156102b557600080fd5b506101026102c43660046115d1565b610790565b60006001600160e01b031982166380ac58cd60e01b14806102fa57506001600160e01b03198216635b5e139f60e01b145b8061031557506301ffc9a760e01b6001600160e01b03198316145b92915050565b60606000805461032a90611604565b80601f016020809104026020016040519081016040528092919081815260200182805461035690611604565b80156103a35780601f10610378576101008083540402835291602001916103a3565b820191906000526020600020905b81548152906001019060200180831161038657829003601f168201915b5050505050905090565b60006103b8826107be565b506000908152600460205260409020546001600160a01b031690565b60006103df8261053a565b9050806001600160a01b0316836001600160a01b0316036104515760405162461bcd60e51b815260206004820152602160248201527f4552433732313a20617070726f76616c20746f2063757272656e74206f776e656044820152603960f91b60648201526084015b60405180910390fd5b336001600160a01b038216148061046d575061046d8133610790565b6104df5760405162461bcd60e51b815260206004820152603e60248201527f4552433732313a20617070726f76652063616c6c6572206973206e6f7420746f60448201527f6b656e206f776e6572206e6f7220617070726f76656420666f7220616c6c00006064820152608401610448565b6104e98383610820565b505050565b6104f8338261088e565b6105145760405162461bcd60e51b81526004016104489061163e565b6104e98383836108ec565b6104e98383836040518060200160405280600081525061063e565b6000818152600260205260408120546001600160a01b0316806103155760405162461bcd60e51b8152602060048201526018602482015277115490cdcc8c4e881a5b9d985b1a59081d1bdad95b88125160421b6044820152606401610448565b60006001600160a01b0382166106045760405162461bcd60e51b815260206004820152602960248201527f4552433732313a2061646472657373207a65726f206973206e6f7420612076616044820152683634b21037bbb732b960b91b6064820152608401610448565b506001600160a01b031660009081526003602052604090205490565b60606001805461032a90611604565b61063a338383610a88565b5050565b610648338361088e565b6106645760405162461bcd60e51b81526004016104489061163e565b61067084848484610b56565b50505050565b6060610681826107be565b6000828152600660205260408120805461069a90611604565b80601f01602080910402602001604051908101604052809291908181526020018280546106c690611604565b80156107135780601f106106e857610100808354040283529160200191610713565b820191906000526020600020905b8154815290600101906020018083116106f657829003601f168201915b50505050509050600061073160408051602081019091526000815290565b90508051600003610743575092915050565b81511561077557808260405160200161075d92919061168c565b60405160208183030381529060405292505050919050565b61077e84610b89565b949350505050565b61063a8282610bfd565b6001600160a01b03918216600090815260056020908152604080832093909416825291909152205460ff1690565b6000818152600260205260409020546001600160a01b031661081d5760405162461bcd60e51b8152602060048201526018602482015277115490cdcc8c4e881a5b9d985b1a59081d1bdad95b88125160421b6044820152606401610448565b50565b600081815260046020526040902080546001600160a01b0319166001600160a01b03841690811790915581906108558261053a565b6001600160a01b03167f8c5be1e5ebec7d5bd14f71427d1e84f3dd0314c0f7b2291e5b200ac8c7c3b92560405160405180910390a45050565b60008061089a8361053a565b9050806001600160a01b0316846001600160a01b031614806108c157506108c18185610790565b8061077e5750836001600160a01b03166108da846103ad565b6001600160a01b031614949350505050565b826001600160a01b03166108ff8261053a565b6001600160a01b0316146109635760405162461bcd60e51b815260206004820152602560248201527f4552433732313a207472616e736665722066726f6d20696e636f72726563742060448201526437bbb732b960d91b6064820152608401610448565b6001600160a01b0382166109c55760405162461bcd60e51b8152602060048201526024808201527f4552433732313a207472616e7366657220746f20746865207a65726f206164646044820152637265737360e01b6064820152608401610448565b6109d0600082610820565b6001600160a01b03831660009081526003602052604081208054600192906109f99084906116d1565b90915550506001600160a01b0382166000908152600360205260408120805460019290610a279084906116e4565b909155505060008181526002602052604080822080546001600160a01b0319166001600160a01b0386811691821790925591518493918716917fddf252ad1be2c89b69c2b068fc378daa952ba7f163c4a11628f55a4df523b3ef91a4505050565b816001600160a01b0316836001600160a01b031603610ae95760405162461bcd60e51b815260206004820152601960248201527f4552433732313a20617070726f766520746f2063616c6c6572000000000000006044820152606401610448565b6001600160a01b03838116600081815260056020908152604080832094871680845294825291829020805460ff191686151590811790915591519182527f17307eab39ab6107e8899845ad3d59bd9653f200f220920489ca2b5937696c31910160405180910390a3505050565b610b618484846108ec565b610b6d84848484610c74565b6106705760405162461bcd60e51b8152600401610448906116f7565b6060610b94826107be565b6000610bab60408051602081019091526000815290565b90506000815111610bcb5760405180602001604052806000815250610bf6565b80610bd584610d75565b604051602001610be692919061168c565b6040516020818303038152906040525b9392505050565b6000610c0860075490565b9050610c148382610e76565b610c2681610c2184610e90565b610f1c565b610c34600780546001019055565b6104e96040518060400160405280601b81526020017f4e46542077697468204944202573206d696e74656420746f20257300000000008152508233610faf565b60006001600160a01b0384163b15610d6a57604051630a85bd0160e11b81526001600160a01b0385169063150b7a0290610cb8903390899088908890600401611749565b6020604051808303816000875af1925050508015610cf3575060408051601f3d908101601f19168201909252610cf091810190611786565b60015b610d50573d808015610d21576040519150601f19603f3d011682016040523d82523d6000602084013e610d26565b606091505b508051600003610d485760405162461bcd60e51b8152600401610448906116f7565b805181602001fd5b6001600160e01b031916630a85bd0160e11b14905061077e565b506001949350505050565b606081600003610d9c5750506040805180820190915260018152600360fc1b602082015290565b8160005b8115610dc65780610db0816117a3565b9150610dbf9050600a836117d2565b9150610da0565b60008167ffffffffffffffff811115610de157610de1611467565b6040519080825280601f01601f191660200182016040528015610e0b576020820181803683370190505b5090505b841561077e57610e206001836116d1565b9150610e2d600a866117e6565b610e389060306116e4565b60f81b818381518110610e4d57610e4d6117fa565b60200101906001600160f81b031916908160001a905350610e6f600a866117d2565b9450610e0f565b61063a828260405180602001604052806000815250610ff6565b606060006008836009604051602001610eab93929190611883565b60405160208183030381529060405290506000610eee610eca83611029565b604051602001610eda91906118b6565b604051602081830303815290604052611029565b9050600081604051602001610f0391906119bf565b60408051601f1981840301815291905295945050505050565b6000828152600260205260409020546001600160a01b0316610f975760405162461bcd60e51b815260206004820152602e60248201527f45524337323155524953746f726167653a2055524920736574206f66206e6f6e60448201526d32bc34b9ba32b73a103a37b5b2b760911b6064820152608401610448565b60008281526006602052604090206104e98282611a52565b6104e9838383604051602401610fc793929190611b12565b60408051601f198184030181529190526020810180516001600160e01b031663038fd88960e31b17905261117c565b611000838361119d565b61100d6000848484610c74565b6104e95760405162461bcd60e51b8152600401610448906116f7565b6060815160000361104857505060408051602081019091526000815290565b6000604051806060016040528060408152602001611b5d604091399050600060038451600261107791906116e4565b61108191906117d2565b61108c906004611b45565b67ffffffffffffffff8111156110a4576110a4611467565b6040519080825280601f01601f1916602001820160405280156110ce576020820181803683370190505b509050600182016020820185865187015b8082101561113a576003820191508151603f8160121c168501518453600184019350603f81600c1c168501518453600184019350603f8160061c168501518453600184019350603f81168501518453506001830192506110df565b5050600386510660018114611156576002811461116957611171565b603d6001830353603d6002830353611171565b603d60018303535b509195945050505050565b80516a636f6e736f6c652e6c6f67602083016000808483855afa5050505050565b6001600160a01b0382166111f35760405162461bcd60e51b815260206004820181905260248201527f4552433732313a206d696e7420746f20746865207a65726f20616464726573736044820152606401610448565b6000818152600260205260409020546001600160a01b0316156112585760405162461bcd60e51b815260206004820152601c60248201527f4552433732313a20746f6b656e20616c7265616479206d696e746564000000006044820152606401610448565b6001600160a01b03821660009081526003602052604081208054600192906112819084906116e4565b909155505060008181526002602052604080822080546001600160a01b0319166001600160a01b03861690811790915590518392907fddf252ad1be2c89b69c2b068fc378daa952ba7f163c4a11628f55a4df523b3ef908290a45050565b6001600160e01b03198116811461081d57600080fd5b60006020828403121561130757600080fd5b8135610bf6816112df565b60005b8381101561132d578181015183820152602001611315565b50506000910152565b6000815180845261134e816020860160208601611312565b601f01601f19169290920160200192915050565b602081526000610bf66020830184611336565b60006020828403121561138757600080fd5b5035919050565b80356001600160a01b03811681146113a557600080fd5b919050565b600080604083850312156113bd57600080fd5b6113c68361138e565b946020939093013593505050565b6000806000606084860312156113e957600080fd5b6113f28461138e565b92506114006020850161138e565b9150604084013590509250925092565b60006020828403121561142257600080fd5b610bf68261138e565b6000806040838503121561143e57600080fd5b6114478361138e565b91506020830135801515811461145c57600080fd5b809150509250929050565b634e487b7160e01b600052604160045260246000fd5b600067ffffffffffffffff8084111561149857611498611467565b604051601f8501601f19908116603f011681019082821181831017156114c0576114c0611467565b816040528093508581528686860111156114d957600080fd5b858560208301376000602087830101525050509392505050565b6000806000806080858703121561150957600080fd5b6115128561138e565b93506115206020860161138e565b925060408501359150606085013567ffffffffffffffff81111561154357600080fd5b8501601f8101871361155457600080fd5b6115638782356020840161147d565b91505092959194509250565b6000806040838503121561158257600080fd5b61158b8361138e565b9150602083013567ffffffffffffffff8111156115a757600080fd5b8301601f810185136115b857600080fd5b6115c78582356020840161147d565b9150509250929050565b600080604083850312156115e457600080fd5b6115ed8361138e565b91506115fb6020840161138e565b90509250929050565b600181811c9082168061161857607f821691505b60208210810361163857634e487b7160e01b600052602260045260246000fd5b50919050565b6020808252602e908201527f4552433732313a2063616c6c6572206973206e6f7420746f6b656e206f776e6560408201526d1c881b9bdc88185c1c1c9bdd995960921b606082015260800190565b6000835161169e818460208801611312565b8351908301906116b2818360208801611312565b01949350505050565b634e487b7160e01b600052601160045260246000fd5b81810381811115610315576103156116bb565b80820180821115610315576103156116bb565b60208082526032908201527f4552433732313a207472616e7366657220746f206e6f6e20455243373231526560408201527131b2b4bb32b91034b6b83632b6b2b73a32b960711b606082015260800190565b6001600160a01b038581168252841660208201526040810183905260806060820181905260009061177c90830184611336565b9695505050505050565b60006020828403121561179857600080fd5b8151610bf6816112df565b6000600182016117b5576117b56116bb565b5060010190565b634e487b7160e01b600052601260045260246000fd5b6000826117e1576117e16117bc565b500490565b6000826117f5576117f56117bc565b500690565b634e487b7160e01b600052603260045260246000fd5b6000815461181d81611604565b60018281168015611835576001811461184a57611879565b60ff1984168752821515830287019450611879565b8560005260208060002060005b858110156118705781548a820152908401908201611857565b50505082870194505b5050505092915050565b600061188f8286611810565b845161189f818360208901611312565b6118ab81830186611810565b979650505050505050565b7f7b226e616d65223a20224d79206e696365206e616d652200000000000000000081527f2c20226465736372697074696f6e223a20224d79206e69636520646573637269601782015266383a34b7b7171160c91b60378201527f2c2261747472696275746573223a205b7b2274726169745f74797065223a2022603e8201527f45796573222c202276616c7565223a2022426967227d5d000000000000000000605e8201527f2c2022696d616765223a2022646174613a696d6167652f7376672b786d6c3b62607582015265185cd94d8d0b60d21b609582015281516000906119a681609b850160208701611312565b61227d60f01b609b939091019283015250609d01919050565b7f646174613a6170706c69636174696f6e2f6a736f6e3b6261736536342c0000008152600082516119f781601d850160208701611312565b91909101601d0192915050565b601f8211156104e957600081815260208120601f850160051c81016020861015611a2b5750805b601f850160051c820191505b81811015611a4a57828155600101611a37565b505050505050565b815167ffffffffffffffff811115611a6c57611a6c611467565b611a8081611a7a8454611604565b84611a04565b602080601f831160018114611ab55760008415611a9d5750858301515b600019600386901b1c1916600185901b178555611a4a565b600085815260208120601f198616915b82811015611ae457888601518255948401946001909101908401611ac5565b5085821015611b025787850151600019600388901b60f8161c191681555b5050505050600190811b01905550565b606081526000611b256060830186611336565b6020830194909452506001600160a01b0391909116604090910152919050565b8082028115828204841417610315576103156116bb56fe4142434445464748494a4b4c4d4e4f505152535455565758595a6162636465666768696a6b6c6d6e6f707172737475767778797a303132333435363738392b2fa2646970667358221220f5f05abfe5ae2e7d02863b3c8699c58fbaf33f42e3e6517f068266034530876364736f6c6343000811003327206865696768743d27353030272077696474683d2732303027202f3e3c2f7376673e3c73766720786d6c6e733d27687474703a2f2f7777772e77332e6f72672f323030302f73766727207072657365727665417370656374526174696f3d27784d696e594d696e206d656574272076696577426f783d273020302033353020333530273e3c7374796c653e2e62617365207b2066696c6c3a2077686974653b20666f6e742d66616d696c793a2073657269663b20666f6e742d73697a653a20323470783b207d3c2f7374796c653e3c726563742077696474683d273130302527206865696768743d2731303025272066696c6c3d27626c61636b27202f3e3c7465787420783d273530252720793d273530252720636c6173733d27626173652720646f6d696e616e742d626173656c696e653d276d6964646c652720746578742d616e63686f723d276d6964646c65273e66697273747365636f6e6474686972643c2f746578743e203c696d61676520687265663d27",
  "devdoc": {
    "kind": "dev",
    "methods": {
      "approve(address,uint256)": {
        "details": "See {IERC721-approve}."
      },
      "balanceOf(address)": {
        "details": "See {IERC721-balanceOf}."
      },
      "getApproved(uint256)": {
        "details": "See {IERC721-getApproved}."
      },
      "isApprovedForAll(address,address)": {
        "details": "See {IERC721-isApprovedForAll}."
      },
      "name()": {
        "details": "See {IERC721Metadata-name}."
      },
      "ownerOf(uint256)": {
        "details": "See {IERC721-ownerOf}."
      },
      "safeTransferFrom(address,address,uint256)": {
        "details": "See {IERC721-safeTransferFrom}."
      },
      "safeTransferFrom(address,address,uint256,bytes)": {
        "details": "See {IERC721-safeTransferFrom}."
      },
      "setApprovalForAll(address,bool)": {
        "details": "See {IERC721-setApprovalForAll}."
      },
      "supportsInterface(bytes4)": {
        "details": "See {IERC165-supportsInterface}."
      },
      "symbol()": {
        "details": "See {IERC721Metadata-symbol}."
      },
      "tokenURI(uint256)": {
        "details": "See {IERC721Metadata-tokenURI}."
      },
      "transferFrom(address,address,uint256)": {
        "details": "See {IERC721-transferFrom}."
      }
    },
    "version": 1
  },
  "userdoc": {
    "kind": "user",
    "methods": {},
    "version": 1
  },
  "storageLayout": {
    "storage": [
      {
        "astId": 714,
        "contract": "contracts/VolcanoNFT_hw16.sol:VolcanoNFTHw16",
        "label": "_name",
        "offset": 0,
        "slot": "0",
        "type": "t_string_storage"
      },
      {
        "astId": 716,
        "contract": "contracts/VolcanoNFT_hw16.sol:VolcanoNFTHw16",
        "label": "_symbol",
        "offset": 0,
        "slot": "1",
        "type": "t_string_storage"
      },
      {
        "astId": 720,
        "contract": "contracts/VolcanoNFT_hw16.sol:VolcanoNFTHw16",
        "label": "_owners",
        "offset": 0,
        "slot": "2",
        "type": "t_mapping(t_uint256,t_address)"
      },
      {
        "astId": 724,
        "contract": "contracts/VolcanoNFT_hw16.sol:VolcanoNFTHw16",
        "label": "_balances",
        "offset": 0,
        "slot": "3",
        "type": "t_mapping(t_address,t_uint256)"
      },
      {
        "astId": 728,
        "contract": "contracts/VolcanoNFT_hw16.sol:VolcanoNFTHw16",
        "label": "_tokenApprovals",
        "offset": 0,
        "slot": "4",
        "type": "t_mapping(t_uint256,t_address)"
      },
      {
        "astId": 734,
        "contract": "contracts/VolcanoNFT_hw16.sol:VolcanoNFTHw16",
        "label": "_operatorApprovals",
        "offset": 0,
        "slot": "5",
        "type": "t_mapping(t_address,t_mapping(t_address,t_bool))"
      },
      {
        "astId": 1702,
        "contract": "contracts/VolcanoNFT_hw16.sol:VolcanoNFTHw16",
        "label": "_tokenURIs",
        "offset": 0,
        "slot": "6",
        "type": "t_mapping(t_uint256,t_string_storage)"
      },
      {
        "astId": 2562,
        "contract": "contracts/VolcanoNFT_hw16.sol:VolcanoNFTHw16",
        "label": "_tokenIds",
        "offset": 0,
        "slot": "7",
        "type": "t_struct(Counter)2211_storage"
      },
      {
        "astId": 2565,
        "contract": "contracts/VolcanoNFT_hw16.sol:VolcanoNFTHw16",
        "label": "baseSvg",
        "offset": 0,
        "slot": "8",
        "type": "t_string_storage"
      },
      {
        "astId": 2568,
        "contract": "contracts/VolcanoNFT_hw16.sol:VolcanoNFTHw16",
        "label": "endSvg",
        "offset": 0,
        "slot": "9",
        "type": "t_string_storage"
      }
    ],
    "types": {
      "t_address": {
        "encoding": "inplace",
        "label": "address",
        "numberOfBytes": "20"
      },
      "t_bool": {
        "encoding": "inplace",
        "label": "bool",
        "numberOfBytes": "1"
      },
      "t_mapping(t_address,t_bool)": {
        "encoding": "mapping",
        "key": "t_address",
        "label": "mapping(address => bool)",
        "numberOfBytes": "32",
        "value": "t_bool"
      },
      "t_mapping(t_address,t_mapping(t_address,t_bool))": {
        "encoding": "mapping",
        "key": "t_address",
        "label": "mapping(address => mapping(address => bool))",
        "numberOfBytes": "32",
        "value": "t_mapping(t_address,t_bool)"
      },
      "t_mapping(t_address,t_uint256)": {
        "encoding": "mapping",
        "key": "t_address",
        "label": "mapping(address => uint256)",
        "numberOfBytes": "32",
        "value": "t_uint256"
      },
      "t_mapping(t_uint256,t_address)": {
        "encoding": "mapping",
        "key": "t_uint256",
        "label": "mapping(uint256 => address)",
        "numberOfBytes": "32",
        "value": "t_address"
      },
      "t_mapping(t_uint256,t_string_storage)": {
        "encoding": "mapping",
        "key": "t_uint256",
        "label": "mapping(uint256 => string)",
        "numberOfBytes": "32",
        "value": "t_string_storage"
      },
      "t_string_storage": {
        "encoding": "bytes",
        "label": "string",
        "numberOfBytes": "32"
      },
      "t_struct(Counter)2211_storage": {
        "encoding": "inplace",
        "label": "struct Counters.Counter",
        "members": [
          {
            "astId": 2210,
            "contract": "contracts/VolcanoNFT_hw16.sol:VolcanoNFTHw16",
            "label": "_value",
            "offset": 0,
            "slot": "0",
            "type": "t_uint256"
          }
        ],
        "numberOfBytes": "32"
      },
      "t_uint256": {
        "encoding": "inplace",
        "label": "uint256",
        "numberOfBytes": "32"
      }
    }
  }
}